:020000040800F2
:1000000000400020A90C0008712300087323000899
:1000100075230008772300087923000800000000FA
:100020000000000000000000000000007B2300082A
:1000300000000000000000007D2300087F2300086E
:10004000F10C000887230008F10C0008F10C0008EF
:10005000F10C0008F10C0008F10C0008F10C00088C
:10006000F10C0008F10C0008F10C0008F10C00087C
:10007000F10C0008F10C0008F10C0008F10C00086C
:10008000F10C0008F10C0008F10C0008F10C00085C
:10009000F10C000883230008F10C0008F10C0008A3
:1000A000F10C0008F10C0008F10C0008F10C00083C
:1000B000F10C0008F10C0008F10C0008F10C00082C
:1000C000F10C0008F10C000881230008F10C000875
:0400D000F10C000827
:1000D80010B5054C237833B9044B13B10448AFF37A
:1000E80000800123237010BD800400200000000060
:1000F800FC47000808B5034B1BB103490348AFF39D
:10010800008008BD0000000084040020FC470008AF
:1001180081F0004102E000BF83F0004330B54FEAB0
:1001280041044FEA430594EA050F08BF90EA020F1D
:100138001FBF54EA000C55EA020C7FEA645C7FEAB0
:10014800655C00F0E2804FEA5454D4EB5555B8BFD3
:100158006D420CDD2C4480EA020281EA030382EA44
:10016800000083EA010180EA020281EA0303362DD6
:1001780088BF30BD11F0004F4FEA01314FF4801CA9
:100188004CEA113102D0404261EB410113F0004FBB
:100198004FEA03334CEA133302D0524263EB430372
:1001A80094EA050F00F0A780A4F10104D5F1200E10
:1001B8000DDB02FA0EFC22FA05F2801841F100016B
:1001C80003FA0EF2801843FA05F359410EE0A5F13F
:1001D80020050EF1200E012A03FA0EFC28BF4CF070
:1001E800020C43FA05F3C01851EBE37101F0004526
:1001F80007D54FF0000EDCF1000C7EEB00006EEB33
:100208000101B1F5801F1BD3B1F5001F0CD34908BC
:100218005FEA30004FEA3C0C04F101044FEA445213
:1002280012F5800F80F09A80BCF1004F08BF5FEA9A
:10023800500C50F1000041EB045141EA050130BD7A
:100248005FEA4C0C404141EB0101013C28BFB1F58C
:10025800801FE9D291F0000F04BF01460020B1FAD7
:1002680081F308BF2033A3F10B03B3F120020CDAAA
:100278000C3208DD02F1140CC2F10C0201FA0CF088
:1002880021FA02F10CE002F11402D8BFC2F1200CED
:1002980001FA02F120FA0CFCDCBF41EA0C019040A3
:1002A800E41AA2BF01EB0451294330BD6FEA0404EC
:1002B8001F3C1CDA0C340EDC04F11404C4F12002D7
:1002C80020FA04F001FA02F340EA030021FA04F3E9
:1002D80045EA030130BDC4F10C04C4F1200220FA40
:1002E80002F001FA04F340EA0300294630BD21FA7E
:1002F80004F0294630BD94F0000F83F4801306BF44
:1003080081F480110134013D4EE77FEA645C18BF37
:100318007FEA655C29D094EA050F08BF90EA020FCE
:1003280005D054EA000C04BF1946104630BD91EAC6
:10033800030F1EBF0021002030BD5FEA545C05D1C9
:100348004000494128BF41F0004130BD14F5800408
:100358003CBF01F5801130BD01F0004545F0FE417C
:1003680041F470014FF0000030BD7FEA645C1ABFB1
:10037800194610467FEA655C1CBF0B46024650EAE8
:10038800013406BF52EA033591EA030F41F4002114
:1003980030BD00BF90F0000F04BF0021704730B59A
:1003A8004FF4806404F132044FF000054FF000016F
:1003B80050E700BF90F0000F04BF0021704730B530
:1003C8004FF4806404F1320410F0004548BF404205
:1003D8004FF000013EE700BF42004FEAE2014FEA5A
:1003E80031014FEA02701FBF12F07F4393F07F4F35
:1003F80081F06051704732F07F4208BF704793F038
:100408007F4F04BF41F40021704730B54FF460744A
:1004180001F0004521F000411CE700BF50EA01024D
:1004280008BF704730B54FF000050AE050EA0102F6
:1004380008BF704730B511F0004502D5404261EB66
:1004480041014FF4806404F132045FEA915C3FF4A7
:10045800D8AE4FF003025FEADC0C18BF03325FEA44
:10046800DC0C18BF033202EBDC02C2F1200300FAF5
:1004780003FC20FA02F001FA03FE40EA0E0021FA1A
:1004880002F11444BDE600BF70B54FF0FF0C4CF408
:10049800E06C1CEA11541DBF1CEA135594EA0C0FBA
:1004A80095EA0C0F00F0DEF82C4481EA030621EAF5
:1004B8004C5123EA4C5350EA013518BF52EA033530
:1004C80041F4801143F4801338D0A0FB02CE4FF0E2
:1004D8000005E1FB02E506F00042E0FB03E54FF012
:1004E8000006E1FB03569CF0000F18BF4EF0010E0A
:1004F800A4F1FF04B6F5007F64F5407404D25FEA06
:100508004E0E6D4146EB060642EAC62141EA5551B8
:100518004FEAC52040EA5E504FEACE2EB4F1FD0CFA
:1005280088BFBCF5E06F1ED8BEF1004F08BF5FEA78
:10053800500E50F1000041EB045170BD06F000462A
:1005480046EA010140EA020081EA0301B4EB5C04D7
:10055800C2BFD4EB0C0541EA045170BD41F48011CF
:100568004FF0000E013C00F3AB8014F1360FDEBFF4
:10057800002001F0004170BDC4F10004203C35DAD0
:100588000C341BDC04F11404C4F1200500FA05F353
:1005980020FA04F001FA05F240EA020001F00042F4
:1005A80021F0004110EBD37021FA04F642EB06016A
:1005B8005EEA430E08BF20EAD37070BDC4F10C0494
:1005C800C4F1200500FA04F320FA05F001FA04F258
:1005D80040EA020001F0004110EBD37041F1000144
:1005E8005EEA430E08BF20EAD37070BDC4F120054F
:1005F80000FA05F24EEA020E20FA04F301FA05F2B7
:1006080043EA020321FA04F001F0004121FA04F25E
:1006180020EA020000EBD3705EEA430E08BF20EA2E
:10062800D37070BD94F0000F0FD101F00046400068
:1006380041EB010111F4801F08BF013CF7D041EAEA
:10064800060195F0000F18BF704703F000465200EE
:1006580043EB030313F4801F08BF013DF7D043EABF
:100668000603704794EA0C0F0CEA135518BF95EA75
:100678000C0F0CD050EA410618BF52EA4306D1D1FC
:1006880081EA030101F000414FF0000070BD50EA1B
:10069800410606BF1046194652EA430619D094EAA5
:1006A8000C0F02D150EA013613D195EA0C0F05D18F
:1006B80052EA03361CBF104619460AD181EA0301E3
:1006C80001F0004141F0FE4141F470014FF000009B
:1006D80070BD41F0FE4141F4780170BD70B54FF036
:1006E800FF0C4CF4E06C1CEA11541DBF1CEA1355B6
:1006F80094EA0C0F95EA0C0F00F0A7F8A4EB050498
:1007080081EA030E52EA03354FEA013100F088808E
:100718004FEA03334FF0805545EA131343EA126357
:100728004FEA022245EA111545EA10654FEA00260C
:100738000EF000419D4208BF964244F1FD0404F5C5
:10074800407402D25B084FEA3202B61A65EB030521
:100758005B084FEA32024FF480104FF4002CB6EBDE
:10076800020E75EB030E22BFB61A754640EA0C005E
:100778005B084FEA3202B6EB020E75EB030E22BF9E
:10078800B61A754640EA5C005B084FEA3202B6EBDF
:10079800020E75EB030E22BFB61A754640EA9C009E
:1007A8005B084FEA3202B6EB020E75EB030E22BF6E
:1007B800B61A754640EADC0055EA060E18D04FEA2C
:1007C800051545EA16754FEA06164FEAC30343EACC
:1007D80052734FEAC2025FEA1C1CC0D111F4801F99
:1007E8000BD141EA00014FF000004FF0004CB6E792
:1007F80011F4801F04BF01430020B4F1FD0C88BF31
:10080800BCF5E06F3FF6AFAEB5EB030C04BFB6EB3B
:10081800020C5FEA500C50F1000041EB045170BD2E
:100828000EF0004E4EEA113114EB5C04C2BFD4EB5B
:100838000C0541EA045170BD41F480114FF0000EDF
:10084800013C90E645EA060E8DE60CEA135594EA5B
:100858000C0F08BF95EA0C0F3FF43BAF94EA0C0F5E
:100868000AD150EA01347FF434AF95EA0C0F7FF4D3
:1008780025AF104619462CE795EA0C0F06D152EA27
:1008880003353FF4FDAE1046194622E750EA41060B
:1008980018BF52EA43067FF4C5AE50EA41047FF41C
:1008A8000DAF52EA43057FF4EBAE12E74FF0FF3C81
:1008B80006E000BF4FF0010C02E000BF4FF0010C52
:1008C8004DF804CD4FEA410C7FEA6C5C4FEA430CCB
:1008D80018BF7FEA6C5C1BD001B050EA410C0CBF1A
:1008E80052EA430C91EA030F02BF90EA020F00207C
:1008F800704710F1000F91EA030F58BF994208BFE3
:1009080090422CBFD8176FEAE37040F0010070479F
:100918004FEA410C7FEA6C5C02D150EA013C07D1F6
:100928004FEA430C7FEA6C5CD6D152EA033CD3D041
:100938005DF8040B704700BF8446104662468C463B
:100948001946634600E000BF01B5FFF7B7FF00286E
:1009580048BF10F1000F01BD4DF808EDFFF7F4FF97
:100968000CBF012000205DF808FB00BF4DF808ED22
:10097800FFF7EAFF34BF012000205DF808FB00BF45
:100988004DF808EDFFF7E0FF94BF012000205DF867
:1009980008FB00BF4DF808EDFFF7CEFF94BF01201C
:1009A80000205DF808FB00BF4DF808EDFFF7C4FF15
:1009B80034BF012000205DF808FB00BF4A0011D2B7
:1009C80012F5001211D20DD56FF47873B3EB6252A1
:1009D8000ED44FEAC12343F0004343EA505323FAAD
:1009E80002F070474FF00000704750EA013002D122
:1009F8004FF0FF3070474FF0000070474FEA410258
:100A0800B2F1E04324BFB3F5001CDCF1FE5C0DD964
:100A180001F0004C4FEAC0024CEA5070B2F1004FAE
:100A280040EB830008BF20F00100704711F0804FB1
:100A380021D113F13872BCBF01F00040704741F476
:100A480080114FEA5252C2F11802C2F1200C10FA7A
:100A58000CF320FA02F018BF40F001004FEAC1235E
:100A68004FEAD32303FA0CFC40EA0C0023FA02F302
:100A78004FEA4303CCE77FEA625307D150EA0133D8
:100A88001EBF4FF0FE4040F44000704701F00040A8
:100A980040F0FE4040F40000704700BFD0B50C4B5A
:100AA800002206460F46FFF7EFFCFFF787FF0446D4
:100AB800FFF770FC074B0022FFF7E6FC02460B46E7
:100AC80030463946FFF728FBFFF778FF2146D0BDAF
:100AD8000000F03D0000F041844641EA000313F0B5
:100AE80003036DD1403A41D351F8043B40F8043B2D
:100AF80051F8043B40F8043B51F8043B40F8043BF0
:100B080051F8043B40F8043B51F8043B40F8043BDF
:100B180051F8043B40F8043B51F8043B40F8043BCF
:100B280051F8043B40F8043B51F8043B40F8043BBF
:100B380051F8043B40F8043B51F8043B40F8043BAF
:100B480051F8043B40F8043B51F8043B40F8043B9F
:100B580051F8043B40F8043B51F8043B40F8043B8F
:100B680051F8043B40F8043B403ABDD2303211D32F
:100B780051F8043B40F8043B51F8043B40F8043B6F
:100B880051F8043B40F8043B51F8043B40F8043B5F
:100B9800103AEDD20C3205D351F8043B40F8043B2F
:100BA800043AF9D2043208D0D2071CBF11F8013B2D
:100BB80000F8013B01D30B8803806046704700BFF3
:100BC800082A13D38B078DD010F003038AD0C3F102
:100BD8000403D21ADB071CBF11F8013B00F8013BE4
:100BE80080D331F8023B20F8023B7BE7043AD9D3A3
:100BF800013A11F8013B00F8013BF9D20B78037078
:100C08004B7843708B788370604670474FEA410C8D
:100C18007FEA6C5C02D150EA013C0AD14FEA430CEE
:100C28007FEA6C5C02D152EA033C02D14FF000002B
:100C380070474FF001007047064B0748E02283F8E1
:100C48002220C0210023C2180133252B82F800136B
:100C5800F9D1704700ED00E000E100E00E4A08B568
:100C6800D2F8883043F47003C2F888304FF08042DD
:100C7800D36843F08003D360084B5A6922F470228A
:100C880042F480325A619A689207FCD5FFF7D4FF84
:100C9800BDE8084000F0FAB800ED00E000000240AE
:100CA800002103E00B4B5B58435004310A480B4BBF
:100CB80042189A42F6D30A4A02E0002342F8043B5B
:100CC800084B9A42F9D3FFF7C9FF03F0A7F801F0E0
:100CD80007FAFEE7104A0008000000208004002000
:100CE8008004002074070020FEE7000070B501258D
:100CF8004C1905FA01F6E4B211448C4208DB074AA4
:100D080042EA80000268534033405340036070BD9C
:100D180005FA04F201341643E4B2EEE7008000401D
:100D280008B51120002304220621FFF7DFFFBDE8E4
:100D38000840642000F0CEB8094B1A6848B1D007C3
:100D480006D51A68910703D41A6842F004021A609B
:100D580070475207FCD51A6842F00802F7E700BF4F
:100D680000700140084B1A6828B11AB91A6842F095
:100D780001021A607047D107FCD51A685207F9D4E6
:100D88001A6842F00202F4E700700140B0F5805F93
:100D980009D2054A536823F47F6323F00F03536095
:100DA800536818435060704700700140044B5968FD
:100DB80021F4401159605A6810435860704700BFC9
:100DC80000700140072892BF074A084A083810B542
:100DD80080000F2303FA00F41368814023EA040318
:100DE8000B43136010BD00BF087001400C70014038
:100DF800034B5B6930EA03030CBF012000207047F6
:100E080000700140024BD869C0F30B00704700BF67
:100E180000700140184BDFED195A1B689FED186AE6
:100E28009FED187A10B5F7EE006A174CA8B9C3F30E
:100E3800471307EE903AF8EEE77A2368E7EEA56ADB
:100E4800C3F30813C1ED006A07EE903AF8EEE77AAB
:100E5800A7EE867A82ED007A10BDC3F3473307EE1A
:100E6800903AF8EEE77A2368E7EEA56AC3F34833C9
:100E7800C1ED006AE8E700BF302000106F12033BA5
:100E88006F12833A6F1283BE3420001008B5012018
:100E980000F016FA0B4B984213D90B4A0133B0FBFA
:100EA800F3F31370094A4FF47A73B0FBF3F0084B6D
:100EB8000138E021586082F8231000229A60072246
:100EC8001A6008BD3F420F009C04002000ED00E0BE
:100ED80010E000E030B5094B09491B784D6863B153
:100EE8008A685843002314468A689442FBD098BF06
:100EF8005B1923449B1A8342F5D330BD9C04002020
:100F080010E000E04FF47A735843FFF7E3BF0000A6
:100F1800012310B58B40062A00F28280DFE802F038
:100F2800040F1B293849630002681A43026082686B
:100F38001A438260C26822EA0303C36038E0026889
:100F48001A43026082681A438260C2681A43C26008
:100F5800026913430BE002681A43026082681A436D
:100F68008260C2681A43C260026922EA030303610D
:100F78001EE0026822EA03020260826822EA030293
:100F88008260426822EA03024260826913430EE0EB
:100F9800026822EA03020260826822EA030282608F
:100FA800426822EA03024260826922EA03038361FB
:100FB80010BD1F4CA0426FEA03020BD1072909D9C3
:100FC80081691140816181680A40826002681A4320
:100FD8000260BDE701681140016081680A408260D3
:100FE80042681A43D0E7124CA0426FEA03020AD1C2
:100FF800072908D9816911408161816811408160A0
:1010080001680A40E4E70168114001608168114005
:10101800816041680B43436083691A408261C7E776
:1010280002681A430260826822EA030281E700BF6D
:1010380000FC014010B52B4C0123A04203FA01F338
:1010480046D1072944D98169194219D181681942C1
:1010580016D10168194213D00169194210D072B92A
:10106800826922EA03028261826822EA03028260BC
:10107800026822EA0302026002691343036110BD99
:1010880018498869184219D18868184216D1086821
:10109800184213D10869184210D0002AEFD08A6983
:1010A80022EA03028A618A6822EA03028A600A68DD
:1010B8001A430A600A6913430B61E0E709491AB148
:1010C8000A6A13430B62DAE7CA691343CB61D6E7AE
:1010D8001AB1026A13430362D1E7C2691343C361B9
:1010E800CDE700BF00FC0140072910B510D90D4B12
:1010F800083998420BBF01EB4101890007230F23F0
:101108008B408A40C16B21EA03031A43C26310BDB6
:10111800836B89000F248C4023EA04038A401A4316
:101128008263F4E700FC0140034AD36803F00F032D
:101138000F2BFAD1704700BF00D0014008B5FFF768
:10114800F3FF10490B6823F001030B60FFF7ECFF76
:1011580001238B61FFF7E8FF4FF080435A6A50B1D3
:1011680042F020025A620B6843F020030B60BDE88E
:101178000840FFF7D9BF22F020025A620B6823F01B
:101188002003F3E700D0014008B5FFF7CDFF034A7D
:10119800136823F00E031843106008BD00D0014007
:1011A80008B5FFF7C1FF40F6FF73984228BF1846FD
:1011B800014B586008BD00BF00D00140064908B582
:1011C8008B69DB0703D5FFF7AFFF01238B61FFF7BF
:1011D800ABFF4B684B6008BD00D0014008B5FFF776
:1011E800A3FF044B1A6842F011021A60DA68D207AA
:1011F800FCD508BD00D00140274B1B6810B59C07E3
:1012080006D1264A536823F4700343F480135360CD
:10121800234A136943F004031361204B1A6881B110
:1012280022F0200202281A600ED81A6822F003025F
:101238001043186000292BD01A4B04225A6030BF83
:1012480010BD42F02002EDE7174B1A6892060AD546
:10125800164C174A9C619A611A6822F020021A609B
:1012680000229C619A61134A13685C045CBF43F4D2
:1012780080431360094B1A6842F003021A605A68E7
:1012880003280CBF42F0807222F080725A60D1E7C6
:1012980040BF20BF20BFD3E7102000100018004037
:1012A80000ED00E000E100E000000240BFAE9D8CD0
:1012B80016151413308000400121FFF79DBF000070
:1012C8004FF0804301461A6802F4E042B2F5A04F9D
:1012D80020D015D8B2F5805F1ED0B2F5005F1B484C
:1012E80008BF4FF4004002291BD0032923D001294D
:1012F80005D14FF080431B68C3F30323D8407047E0
:10130800B2F5C04F0BD0114B1148B2F5E04F18BFE2
:101318001846E8E70F48E6E74FF4FA40E3E70E48D7
:10132800E1E74FF080421368C3F30323D840136802
:10133800C3F34213E2E74FF080421368C3F3032379
:10134800D8401368C3F3C233D8E700BF00366E0134
:10135800006CDC020048E80100093D004FF08043C2
:10136800DA6A910406D5DA6822F48072DA60DA6AF9
:101378009204FCD44FF08042936823F06003184332
:10138800906070474FF08043586800F00200704743
:1013980041284AD8DFE810F011020702FD01E401F4
:1013A800D201B901710167015D01530149013F0192
:1013B80035010D010301D600EA00E000CC00490028
:1013C800C200B800AE00A30099008F0085006B0032
:1013D800610057004D004200170121012B0149000F
:1013E80049004900490049004900490049004900AD
:1013F80049004900490049002E0225021B02380213
:10140800950149004900490049004900490049003F
:10141800490049004900490042024C024FF080430C
:10142800DA6819B142F48012DA60704722F4801247
:10143800FAE74FF08043DA6811B142F40022F3E78B
:1014480022F40022F0E74FF08043DA6811B142F449
:101458008022E9E722F48022E6E74FF08043DA6849
:1014680011B142F40032DFE722F40032DCE74FF03A
:101478008043DA6879B142F48032DA604FF0804311
:101488009A6A02F03F023F2AFAD15A6931B142F012
:1014980004025A61704722F48032EEE722F0040217
:1014A800F7E74FF08043DA6811B142F40042BBE736
:1014B80022F40042B8E74FF08043DA6811B142F4F1
:1014C8008042B1E722F48042AEE74FF08043DA6809
:1014D80011B142F40052A7E722F40052A4E74FF0FA
:1014E80080431A6919B142F020021A61704722F04C
:1014F8002002FAE74FF08043DA6811B142F48052D3
:1015080092E722F480528FE74FF08043DA6811B1F6
:1015180042F4006288E722F4006285E74FF08043D6
:10152800DA6811B142F480627EE722F480627BE7D8
:101538004FF08043DA6811B142F4807274E722F404
:10154800807271E74FF08043DA6811B142F02002EF
:101558006AE722F0200267E74FF08043DA6811B1AA
:1015680042F0800260E722F080025DE74FF080439E
:10157800DA6871B142F04002DA604FF080439A6A4B
:1015880002F03F023F2AFAD15A6929B142F0080213
:101598007FE722F04002EFE722F0080279E74FF0F8
:1015A8008043DA6811B142F010023DE722F01002E0
:1015B8003AE74FF08043DA6811B142F0007233E73E
:1015C80022F0007230E74FF08043DA6811B142F040
:1015D800807229E722F0807226E74FF08043DA68AC
:1015E80011B142F400021FE722F400021CE74FF099
:1015F8008043DA6811B142F4800215E722F48002D0
:1016080012E74FF08043DA6811B142F008020BE7A5
:1016180022F0080208E74FF08043DA6811B142F07F
:10162800040201E722F00402FEE64FF08043DA6884
:1016380011B142F00202F7E622F00202F4E64FF09E
:101648008043DA6811B142F00102EDE622F00102AE
:10165800EAE64FF08043DA6811B142F00062E3E64F
:1016680022F00062E0E64FF08043DA6811B142F000
:101678008062D9E622F08062D6E64FF080431A698C
:1016880079B142F400721A619A6A02F03F023F2A65
:10169800FAD15A6942F010025A611A6942F01002EE
:1016A80023E722F010021A619A6A02F03F023F2AE9
:1016B800FAD15A6922F010025A611A6922F40072AA
:1016C80013E74FF080431A6979B142F480521A61E6
:1016D8009A6A02F03F023F2AFAD15A6942F0200280
:1016E8005A611A6942F40062FFE622F400621A6144
:1016F8009A6A02F03F023F2AFAD15A6922F0200280
:101708005A611A6922F48052EFE64FF080431A6951
:1017180071B142F008021A614FF080439A6A02F0F0
:101728003F023F2AFAD15A6929B142F00102B0E6D4
:1017380022F00802EFE722F00102AAE64FF0804308
:101748001A6931B142F004021A611A6942F0400282
:10175800CBE622F004021A611A6922F04002C4E6BC
:101768004FF080431A6971B142F002021A614FF0DA
:1017780080439A6A02F03F023F2AFAD15A6929B196
:1017880042F0020285E622F00202EFE722F00202AE
:101798007FE64FF08043DA6811B142F0805243E6A9
:1017A80022F0805240E64FF080431A6911B142F0AE
:1017B80001029AE622F0010297E64FF080431A6987
:1017C80011B142F0800290E622F080028DE64FF0DF
:1017D80080431A6911B142F4807286E622F480725D
:1017E80083E64FF08043DA6809B11A431CE622F019
:1017F800804219E64FF08043DA6811B142F0005296
:1018080012E622F000520FE64FF080431A6911B138
:1018180042F4806269E622F4806266E64FF0804313
:10182800DA6811B142F40012FEE522F40012FBE579
:101838004FF08043DA6811B142F00042F4E522F03B
:101848000042F1E510B50C4605280ED8DFE800F097
:1018580003151F28335E364A3649136834B123F01E
:10186800200313608B685B07FCD510BD43F0200391
:1018780013608B685C07FCD4F7E72F4A136819B12B
:1018880023F400431360F0E743F40043FAE72A4ADD
:10189800136811B123F4C043F4E743F4C043F1E7FC
:1018A800234A136823F0180311B143F00803E9E74A
:1018B80043F01003E6E701210E20FFF769FD1F4BF7
:1018C800D3F80421CCB190060BD4D3F8042142F00C
:1018D8002002C3F80421D3F8042122F08002C3F8BF
:1018E8000421164BD3F8042142F00402C3F8042162
:1018F800D3F808219107FBD5B7E722F00402C3F813
:101908000421D3F808219207FBD4AEE7084A094915
:10191800136834B123F0400313608B68002BFCDAA2
:10192800A3E743F0400313608B68002BFCDB9CE7C4
:10193800188000400082004008800040009000406D
:101948003F281ED82F280DD90123303803FA00F07C
:101958004FF08043DA6911B91043D861704722EA21
:101968000000FAE7A0F12003DBB2022B98BF0D209C
:10197800012303FA00F04FF080439A6911B910432C
:101988009861704722EA0000FAE70000034940F630
:10199800FF53CA6A33EA0202FBD1704700E00040F5
:1019A80008B5FFF7F3FF054B1A6818B142F08052EB
:1019B8001A6008BD22F08052FAE700BF00E000403C
:1019C80010B50C46FFF7E2FF48B90B4B5A681CB13B
:1019D80042F000425A6010BD22F00042FAE70128A6
:1019E800F9D1054B9A681CB142F000429A60F2E7BF
:1019F80022F00042FAE700BF00E00040012910B5DC
:101A08000C460DD868B101280AD14FF08060FFF765
:101A1800BDFF054B1A68012C0CBF024382431A60B4
:101A280010BD4FF00060F2E700E0004008B5FFF796
:101A3800ADFF054B1A6818B142F080721A6008BDF4
:101A480022F08072FAE700BF00E00040012808B5E4
:101A58000AD8FFF79BFF054B1A6801280CBF42F014
:101A6800007222F000721A6008BD00BF00E000405A
:101A780070B500285AD0058840F633039D4255D8E2
:101A88008378072B52D8C3780C2B4FD803791F2B98
:101A98004CD84379272B49D883793C2B46D8C3792E
:101AA8003C2B43D8FFF772FF02798378C6780A2463
:101AB800B2FBF4F104FB1122D2B242EAC322B6FB14
:101AC800F4F342EA832204FB1363DBB23035EDB250
:101AD80042EA831242EA0112B5FBF4F304FB135500
:101AE80042EA8342EDB242EA8532114D6A61FFF75C
:101AF8004DFF4379C179B3FBF4F204FB1233DBB237
:101B08008679B1FBF4F09B0304FB101143EA82438E
:101B1800C9B2B6FBF4F20B4304FB126443EAC223D6
:101B2800E4B243EAC41343EA00132B6170BD00BF5B
:101B380000E00040F8B5054600285FD0314803466C
:101B4800476BB9B25E6C5A6CB242FBD19C6C9A6C12
:101B5800A242FBD15A6B92B29142F1D10029EFD047
:101B6800FFF710FCBFB207EE907AB8EEE77AF6EE10
:101B7800007A002843D1DFED246AC6F3021306F089
:101B88000F0203EB830302EB4303EB71C6F3C2239B
:101B9800C6F3C31203EB830302EB4303AB71C6F333
:101BA800814303EB8303C6F3833606EB4306C4F392
:101BB800011304F00F0203EB830302EB43032B71C1
:101BC800C4F380239A001344C4F3831202EB430343
:101BD800E7EE267AEB70C4F3C223AB70C4F38343F9
:101BE80003EB8303C4F38334FCEEE77A04EB43048A
:101BF80004F5FA64C5ED027A6E712C80F8BDDFED4C
:101C0800036ABAE700E000400024F4410000FA410A
:101C1800402810B50C4608D0431EDBB21F2B09D84C
:101C2800054A22FA03F3DB0704D5FFF7AFFE0CB928
:101C3800024BD86110BD00BF8B80008000E00040DF
:101C4800402808B508D0431EDBB21F2B0ED8084A1F
:101C580022FA03F3DB0709D5FFF798FE054BDB698A
:101C680030EA03030CBF0120002008BD0020FCE778
:101C78008B80008000E0004080280AD0402808D0EF
:101C8800431EDBB21F2B0DD8074A22FA03F3DB07EA
:101C980008D5012906D8054B9A6A0CBF104322EAD9
:101CA80000009862704700BF8B80008000E0004011
:101CB80001282DE9F84305468846164610D879B11B
:101CC80072B10021FFF77CFE6F4C704B002818BFE3
:101CD8001C4698F8053043B1B1686D4A91422BD93A
:101CE800BDE8F8839FED6B6A34E0DFED6B7A45E081
:101CF8002BB1B378072BF3D80123A1465CE04FF052
:101D0800010959E001275FE04FF0010E65E04FF04F
:101D1800010C6CE0B278B2FBF1F401FB1424E4B2DC
:101D2800220573E0002271E000207BE0002187E0BB
:101D3800002693E09C60D3E70F2BD1D8FFF722FB56
:101D480096ED027AF6EE007AB8EE477A0028C9D105
:101D58009FED526AC7EE066A76EEA77AFFF716FE7F
:101D680023681B0C1B042360FFF710FEBCEEE77A08
:101D780017EE103A9AB2236813432360FFF706FE62
:101D880023882360FFF702FEFCEEE77A17EE903A0D
:101D98009BB22BB198F80520236843EA02432360DD
:101DA80098F8004098F80130002CA1D0002B97D16A
:101DB80032791F2A94D8994698F80220002AA1D08F
:101DC8007279272A8CD8002798F80320002A9BD0FC
:101DD800B2793B2A84D84FF0000E98F80420002AE4
:101DE80095D0F2793B2A3FF67BAF4FF0000CB9F162
:101DF800000F97D10A21002B8CD13279B2FBF1F474
:101E080001FB1421C9B2090541EA0462002F8BD1F4
:101E180074790A21B4FBF1F001FB1044E4B2A40385
:101E280044EA8040BEF1000F80D1B4794FF00A082F
:101E3800B4FBF8F108FB1144E4B2E40144EAC1211F
:101E4800BCF1000F7FF474AFF4794FF00A08B4FBCB
:101E5800F8F608FB1644E4B244EA0616BF0047EA5F
:101E6800C90444EA4E049B0744EA0C0443EA846428
:101E7800144304430C433443FFF788FD084B002DFB
:101E88007FF458AF5C602BE73CE0004040E0004046
:101E98003F420F000000FA41000000000024F44116
:101EA80000E0004008B518B1FFF770FD014B9861DC
:101EB80008BD00BF00E000402DE9F8436E486F4DB3
:101EC80001220221FFF7B6F8012208216A48FFF72C
:101ED800B1F80A2001F0F4FE0120FEF743FF0120CB
:101EE800FEF72AFF05F11407B846A9460A242E462C
:101EF8000120FEF77DFF0028FAD0FEF783FF28F8BF
:101F0800020B0120FEF774FF0028FAD0FEF77AFFD3
:101F180029F8020B0120FEF76BFF0028FAD0FEF724
:101F280071FF013C0120FEF707FF14F0FF04DFD129
:101F38002046FEF701FF2046FEF714FF4E482246D2
:101F48000221FFF777F822464B480821FFF772F87D
:101F58004B4B9FED4C6AD3ED007A4B4BDFED4B4A70
:101F6800D3ED006A4A4BDFED4B5A03F12802F1EE3C
:101F7800677A37F8021B07EE101AB8EEC77AB0EE88
:101F8800675AA7EE065A35F8021B013485EE267A01
:101F9800E4B20A2CB0EE675A37EE247AA3EC017A41
:101FA80007EE101AB8EEC77AA7EE065A85EE267A1B
:101FB80027EE257AA2EC017ADBD196ED0F7ADFEDD8
:101FC800366AF0EE047A77EEC77A87EEA66AF2EE02
:101FD800047AC7EE066AC6EEA77A17EE900AFEF7ED
:101FE800FBF902F0D3F91EA3D3E90023FEF74CFA5C
:101FF8001DA3D3E90023FEF791F802460B46002003
:102008002649FEF76BFB1AA3D3E90023FEF784F8F1
:10201800FEF7F4FCDFED227A96ED197ADFED216AFE
:10202800B06737EE677AC7EE267A9FED1F7A67EEBC
:10203800877AF4EEC77AF1EE10FA0EDAF5EEC07A86
:10204800F1EE10FA01D8DFED197AFCEEE77A17EE17
:10205800903A86F87C30BDE8F883F0EE477AF4E7EA
:10206800000000806597303F000000E0E1796B3F99
:10207800000000606612714000F00140A0040020DA
:10208800380500209A999939440000200AD7A33CC2
:10209800C80400201F856B4000001C420000F03F70
:1020A800CDCC2C40CCCC4C3F0000C84200000000F6
:1020B80030B5034601444AF201044FF6FF708B42E3
:1020C80000D130BD13F8012B5040082200F0010563
:1020D800400805B16040013A12F0FF02F6D1EEE780
:1020E8003A4D3B4C3B4E08B500F0A8F9AA232B709B
:1020F80002236B702423AB70EB706B7101230022F9
:102108003448AB71032164232A71EB71FEF792FF07
:1021180041F2883001F0D4FD238801332380FFF792
:102128004DF8002203213046FEF784FFFFF7C4FE76
:10213800294B94ED017AD3ED007A37EEC76AF0EEB9
:10214800006AB4EEE66AF1EE10FA06DC37EE677A5A
:10215800B4EEE67AF1EE10FA23DDC4ED017AB2EEC0
:10216800047A67EE877A0023238023721B4B174873
:102178001B78EB71FDEEE77A0A2117EE903A43F3EC
:1021880007222A726B72FFF793FF83B26381E872AA
:102198001B0A0E48AB724FF47A720C2100F0CAF891
:1021A80005E0237A012BDAD02388772BD7D80122B0
:1021B80030460321FEF73EFF0A21002001F06AFBAA
:1021C800FFF7E4FB0320FFF777F8A5E700000020FE
:1021D8002005002000F00140180500201C05002003
:1021E80008B5034BDB6A9847024B04221A7008BDF6
:1021F8003C4900082C05002008B5034BDB6A9847CA
:10220800024B05221A7008BD3C4900082C05002025
:1022180008B5034BDB6A9847024B02221A7008BDC7
:102228003C4900082C05002008B5034BDB6A984799
:10223800024B03221A7008BD3C4900082C050020F7
:10224800F8B51D46094BDB6A0C4607461646984703
:10225800074B08481C8039462246FEF73DFC0649D4
:1022680001234E708D700B70F8BD00BF3C4900080B
:1022780040000020900500202C0500202448254B14
:102288002DE9F0430360244B8360244B244D4360C5
:10229800244BC360244B03618BB02B689847EB68D1
:1022A80022480024984701264FF008094FF00A08F1
:1022B80040F6B833CDE90743CDE90346CDE90169D6
:1022C8002346224621463046CDE90544EF69CDF83C
:1022D8000080B84742462146CDE90846CDE9044684
:1022E80033463046CDE90644CDE90244CDE90049FC
:1022F800AE69B047AB6C40F6E70098470C4BD87016
:102308006B6B20469847EB6A0BB0BDE8F043184763
:1023180074050020E921000849220008012200086C
:102328003C4900081922000831220008C0AE061CEA
:102338002C05002038B50A4D06232B70094B9B6AE3
:1023480014469847012C02D92B78042B00D138BDAC
:102358000120013CA4B201F0B3FC00F0EBF9F1E775
:102368002C0500203C4900087047FEE7FEE7FEE721
:10237800FEE7704770477047704700F0B9BD01F03D
:10238800CBBA000008B501210D20FFF701F80D4870
:1023980004220221FEF7BCFD0A4804220821FEF7A8
:1023A800B7FD032211460748FEF7B2FD054807228C
:1023B8000421FEF7ADFDBDE80840024807220521CB
:1023C800FEF7A6BD00F0014010B501210446052026
:1023D800FEF7DEFF0120FEF7B1FE0C20FEF7D4FE6B
:1023E8002046FEF7DDFEBDE81040FEF7F7BE000010
:1023F80008B5104A10490020FEF70CFDFEF790FCC6
:102408001420FEF7C3FC04210020FEF7DBFC0321A7
:102418000120FEF7D7FC03210220FEF7D3FC0020A1
:10242800FEF7C4FC0020FEF787FCBDE8084000204A
:10243800FEF798BC380500204400002008B50121AB
:102448000220FFF7FFF96020FEF788FF0121112025
:10245800FEF79EFF01211F20FEF79AFF01210D20A4
:10246800FEF796FF01212020FEF792FF012121208F
:10247800FEF78EFF01212220FEF78AFF012141206D
:10248800FEF786FF01210320FEF782FF01210020CD
:10249800FEF77EFF01210E20FEF77AFF01211220B0
:1024A800FEF776FFFFF76EFFFFF7A2FF40F6FF701B
:1024B800FFF78AFFBDE80840FFF7E0BE012070473C
:1024C800002000F0A5BD000010B50D4C206000F004
:1024D800CDFE002000F09CFD012000F046FE00210A
:1024E800084601F043F80421002000F011FF002302
:1024F80018461A46194600F089FE0020207110BDC2
:102508003C05002008B500F005FDC31EDBB2022B18
:102518009ABFC0F10600C0B2002008BD00F0BCBEE2
:1025280008B501F030F800B208BD01F047BB01F072
:1025380011BB000038B50C46002340F201211A46B1
:102548000546084600F062FE00F0DCFE074B012855
:1025580006480CBFDC731C7200F094FF2146284625
:102568000022BDE8384000F07FBD00BF9C05002078
:1025780008B54FF0040000F039FDBDE8084002201E
:1025880001F09EBB00F0ACBD37B5184B93F838503E
:102598000F2805F10D05EDB222D8072822D8032807
:1025A80022D8012894BF0024012400234FF4C071CD
:1025B8001A46084600F02AFE002300930A222946FC
:1025C800204600F0B5FF00F0A7FD09484FF4FA6176
:1025D80001F006FC064803B0BDE8304001F096BBA8
:1025E8000424E2E70324E0E70224DEE79C05002058
:1025F800F006002010B50C462DED028B08EE102ACF
:1026080000F04AFE204601F031FB00F091FDDFEDBD
:102618000A7A0A48B8EEC88A28EE278AFCEEC87AF1
:1026280017EE901A01F0DCFBBDEC028B0348BDE805
:10263800104001F06BBB00BF00007A441C0700206B
:1026480001F064BA01F092BA08B501F0C9F9033093
:1026580008BD000010B590B10A4B012219461C684C
:10266800A04206D39C68A04203D201EBC2021079B3
:1026780010BD0132162A03F10803F0D1FEE71F202E
:10268800F6E700BF204800080128074804D1074B97
:10269800C173197000F0F6BEC379012B03D1034B47
:1026A80001721970F6E770479C0500204800002069
:1026B800002340F2422110B51A460446084600F0AD
:1026C800A5FD34B10948214601F08AFB074801F00D
:1026D8001DFB074B5A792AB16FF07F40BDE81040C7
:1026E80000F0CCBC98688001F8E700BF1C07002008
:1026F8003C0500200023022110B51A46044608466E
:1027080000F084FD34B10948214601F069FB07480F
:1027180001F0FCFA064B5A792AB16FF07F40BDE808
:10272800104000F0C1BC98688001F8E71C07002041
:102738003C050020F7B5484C2379002B7DD0474D48
:1027480001F000F90023237101F0FEF82B88D90766
:1027580007D5012000F0E4FB236813B11B6803B11F
:1027680098472B889A072ED5667996B9012000F0EC
:10277800D7FB314640F6021001F0ECF940F6441060
:1027880001F01CFA40F00200C1B240F6441001F01A
:10279800E1F9334E3348FF220DF1070100F024FF21
:1027A800304600F03BFF23686BB19F685FB12B8810
:1027B8005B0608D496F90D3096F90C209DF80710A1
:1027C80028481A44B8472B88580609D5637913B99D
:1027D800012000F0A5FB236813B11B6903B19847DA
:1027E8002B8819060AD5012000F09AFB23682BB123
:1027F8009B691BB12888C0F3002098472B889A054D
:102808000ED500F087FB042819D1174801F0BAFA51
:10281800012000F085FB236813B15B6803B198477A
:102828002B889B0609D5637913B9012000F078FB42
:10283800236813B1DB6803B1984703B0F0BD00F01B
:1028480069FB0528ECD1012000F06AFB2368002B06
:10285800E6D0DB68E2E700BF3C05002098050020D1
:1028680008070020F0050020D80500200D4B10B502
:1028780004461873587300F017F85CB134214FF40C
:10288800E86001F067F94421BDE8104040F241706A
:1028980001F060B914214FF4E86001F05BF92421DC
:1028A800F2E700BF3C05002008B5012000F01AFD42
:1028B800054B187B5A7B824204D05873BDE8084008
:1028C800FFF7D4BF08BD00BF3C050020012808B5AC
:1028D80006D0002000F006FD034B00225A7308BD05
:1028E800BDE80840FFF7E0BF3C050020F8B50D46FD
:1028F80017461C46FFF7EAFF284600F0CDFC0020EB
:10290800FFF7D6FE012001F0DBF901F071FA00258E
:1029180006463046002101F077FAA94208BFA042D6
:1029280004D30124FFF724FE2046F8BD00F02BFE57
:1029380000B28742EDDA0024F4E737B5FFF7B4FFB9
:10294800002000F09BFB00242546012001F0B8F987
:1029580000F019FE00F00103A3400134202C45EAE1
:102968000305F2D101F098F928440190FFF700FE21
:10297800019803B030BD00000A2838B50DD8084BBF
:1029880003EBC000D0E92C4501208840FDF712FD7B
:1029980022462B46FDF7A2FE38BD00240025F3E7AA
:1029A80020480008000000002DE9F04F85B01546CA
:1029B8009DF84C2000929DF85C209DF84470DFF84B
:1029C8000092BDF8404089F80520002A18BF00246D
:1029D800734ABDF83C80002F0E469DF8481008BF8A
:1029E800FF2111708246934620B101286DD005B0B1
:1029F800BDE8F08FDFF8C0B100F09FFB0B23304635
:102A08008BF834308BF828A0CBF82C50FFF722FE37
:102A1800634A8BF8350041F60403ABF804301378A9
:102A28008BF80830009B8BF800A0002B14BFF22312
:102A3800012387F001078BF809304FEAC808012302
:102A48008BF80A308BF80770ABF802808BF806A079
:102A5800FFF736FD9BF82800003818BF0120FFF764
:102A680035FF0BF1280000F0B3FC584600F00AFDD2
:102A78004C4A1068516802AB03C302A800F06DFA13
:102A880040F2FF1000F096FA2846FDF783FC024654
:102A98000B4600204449FDF721FE444B0022FDF778
:102AA800F3FC064620460F46FDF784FC02460B461B
:102AB80030463946FDF7E8FC3D4B0022FDF7E4FCC3
:102AC800FDF77CFFC9F8080091E70020019300F0AA
:102AD80034FBE0B200F03DFB364A374C019B84F8EA
:102AE80028A032445FFA85F992F8100184F83890EA
:102AF80084F8390084F83A3096BB0B3D012D33D861
:102B08000123A9F10509994584F83BA0237039D818
:102B1800B8F10B0F36D80C23A3819BF80030E37370
:102B2800009B23749DF858306374A773FFF7BCFEAD
:102B3800224800F04DFC204800F0A4FC637C012BE7
:102B480040F2367021D101F039F800F0FB0140F273
:102B5800367000F0FFFF1A4A4FF6FF73936046E79E
:102B6800012E01D10C2DCBD04946FFF705FF0AA352
:102B7800D3E90023FDF70EFFB0F1000A18BF4FF0AC
:102B8800010ABDE7A4F80C80C7E701F017F840F088
:102B98000400C1B2DBE700BF000000A0476130407D
:102BA80048000020284900080000F03F00002040AD
:102BB80000408F40204800089C050020C4050020E4
:102BC8003C050020000000002DE9F74F0C9EBDF8E1
:102BD80038709DF83C809DF840A08946934605468C
:102BE80048B1012845D040F6890000F0E7FF40F0E1
:102BF8000400C1B283E0544C0B2284F82800184624
:102C080084F83420E662FFF725FD41F60403BAF1A3
:102C1800000FA38014BFF22301236372FF00012376
:102C280088F00108A37284F83500C4F830B0257024
:102C38006780A57184F80780FFF742FC94F82800A4
:102C4800003818BF0120FFF741FE04F1280000F00A
:102C5800BFFB204600F016FC3C4A106851686B46E2
:102C680003C3684600F079F940F2FF1000F0A2F9BA
:102C7800B9E7374A344C1A4484F828005FFA86FBCF
:102C880092F810019DF8342084F838B084F839009F
:102C980084F83A20002B3FD10B3E012E40D8012367
:102CA800ABF1050B9B4584F83B50237044D80B2FA0
:102CB80042D80C23A381274B84F80E801B78E3733A
:102CC8009DF84C30637484F810A0FFF7F9FB94F872
:102CD8002800003818BF0120FFF7F8FD1E4800F053
:102CE80077FB194800F0CEFB94F83930062B7FF4B7
:102CF8007AAF40F6890000F061FF00F0FB0140F672
:102D0800890000F027FF484600F0B0FF149A134BE3
:102D18001A6103B0BDE8F08F012B01D10C2EBED093
:102D28005946FFF729FE06A3D3E90023FDF732FE33
:102D3800051E18BF0125B2E7A781BCE7AFF30080E5
:102D4800000000A0476130409C0500202849000889
:102D58002048000848000020C40500203C05002049
:102D68002DE9F74F884628B101283DD0002003B04F
:102D7800BDE8F08F5A4A9FED5B6A5179538803EB9F
:102D8800D10307EE903AD379F8EEE77A002B07EEF5
:102D9800108AF7EE006A08BFF0EE466A77EEA67A68
:102DA800B8EEC77A537A77EE877A022BB0EE007ABC
:102DB80018BFB0EE467A77EE877AB2EE007A67EE01
:102DC800877A92ED0B7AB8EE477AC7EE876ADFED1D
:102DD800467A66EEA77A17EE900AFDF7FDFA01F03B
:102DE800FBF9FDF7EBFDC2E7DFF8F4A09AF838B07D
:102DF8009AF839005946FFF7BFFDBAF80C3007EECC
:102E0800903AF8EEE77AB1EE017A77EE877A0446DF
:102E18000D4617EE900AFDF7DFFA22462B46FDF71E
:102E280033FB9AF80E300646CBEB48089AF81000A8
:102E3800012B08F1070808EB80080CBF14200020BC
:102E4800C0EB88000F46FDF7B5FA9AF83B30002B27
:102E5800804614BF02200020ABEB000080008946AA
:102E6800FDF7A8FA02460B4640464946FDF736FCF0
:102E780001F0BAF802469AF83A0000F003000B464F
:102E88000430CDE90023FDF795FADDE90023FDF7CD
:102E9800FBFA0022002380468946FDF785FD18B914
:102EA8004FF000084FF00009104B002240464946F9
:102EB800FDF734F922462B46FDF7E6FA32463B4643
:102EC800FDF72CF904A3D3E90023FDF727F901F056
:102ED80007F986E7AFF30080000000E0CEF7EF3F88
:102EE8009C0500200000000000007A4400002040FB
:102EF80008B5064B01221A7100F09DF9044B1880A1
:102F0800BDE808404FF6FF7000F0C8BB3C05002044
:102F180098050020014B1878704700BF5005002025
:102F2800014B1870704700BF5005002008B5074BCB
:102F38001A7812B11B78062B03D100F089FD00F036
:102F48009BFEBDE8084000F077BD00BF500500209B
:102F58000A460146002000F03DBE08B50146082299
:102F68004FF4D86000F0D2FD002008BD07B5074B2C
:102F78005B7840BAADF804002BB9022201A940F2EF
:102F8800BC6000F0C3FD03B05DF804FB50050020F1
:102F980007B5074B5B7840BAADF804002BB902229D
:102FA80001A940F2BE6000F0B1FD03B05DF804FB7A
:102FB8005005002010B50C4B5B7804469BB94FF4C4
:102FC800D76000F0FBFDC4F3002100F0FE000143D0
:102FD8004FF4D76000F0BEFDE1B240F2B960BDE841
:102FE800104000F0B7BD10BD5005002007B58DF8A2
:102FF800040000F049FE012201A9842000F040FDF0
:10300800024B00221A7003B05DF804FB5005002043
:1030180007B501228DF807000DF10701802000F0A7
:103028002FFD9DF80720044B22B901221A7003B026
:103038005DF804FB0222F9E75005002007B5094BAB
:103048008DF8060004221A70030C8DF80430032250
:10305800030A01A983208DF8053000F011FD03B0A3
:103068005DF804FB5005002010B51446FFF770FF0B
:103078002046BDE81040FFF7E1BF000007B5094B47
:103088008DF8060005221A70030C8DF8043003220F
:10309800030A01A982208DF8053000F0F1FC03B085
:1030A8005DF804FB5005002013B50C4B04460522BF
:1030B800962140F6AC001A7000F04CFD230C8DF8F8
:1030C80004300322230A01A982208DF805308DF8E7
:1030D800064000F0D5FC02B010BD00BF500500202E
:1030E80007B5030C8DF80030030A8DF801300B0C7E
:1030F80049BA8DF80200ADF80410062269469420FA
:103108008DF8033000F0BCFC024B06221A7003B0A5
:103118005DF804FB50050020002208B51146C520C3
:1031280000F0AEFC014B07221A7008BD50050020C4
:1031380000221146D12000F0A3BC07B501228DF86A
:1031480007000DF107019F2000F09AFC03B05DF81D
:1031580004FB07B501228DF807000DF10701A02037
:1031680000F08EFC03B05DF804FB07B501228DF872
:1031780007000DF10701962000F082FC03B05DF80E
:1031880004FB0000134B984207B50BD94EF6E11328
:10319800ADF80430022201A9982000F071FC03B0B8
:1031A8005DF804FB0C4B984202D94DF6D703EFE7C4
:1031B8000A4B984202D94CF2C153E9E7084B9842AE
:1031C80002D948F27513E3E7064B9842E2D946F66E
:1031D8006B73DDE700E9A43580F8A9328044E52D5A
:1031E800000B6B1B40FC541907B58DF80620042210
:1031F8008DF804008DF8051095200DEB02018DF86F
:10320800073000F03DFC03B05DF804FB07B552BA87
:10321800ADF8042040BA082249BAADF80000ADF86C
:1032280002105BBA69461046ADF8063000F028FC7B
:1032380003B05DF804FB07B5022201A9122000F0D3
:1032480041FC9DF804009DF8053043EA002003B0D6
:103258005DF804FB07B501228DF807000DF10701A1
:103268009D2000F00DFC03B05DF804FB08B500F0EC
:1032780079FB00F0B7FB00F0EBFB0020FFF7C8FE7E
:103288000120FFF7E7FF024B01221A7008BD00BFBB
:10329800500500200000000037B5114DAB780446FA
:1032A8001BB9FFF76FFF0123AB702046FDF772F8DB
:1032B80009A3D3E90023FDF711FAFDF77FFB0422E8
:1032C80000BA01900DEB0201862000F0D9FB03B093
:1032D80030BD00BFAFF30080000000008084EE3FE7
:1032E8005005002007B5064B8DF8070058700122DD
:1032F8000DF107018A2000F0C3FB03B05DF804FB61
:1033080050050020014B5878704700BF5005002039
:1033180037B5044600200D4600F0ABFC01280346F3
:1033280020D10F2C02464FF000010CBF06200420CC
:10333800FFF75AFF6FF002008442B8BF04460E2C14
:10334800A8BF0E24182140F6E70000F003FC022273
:1033580001A98E208DF804408DF8055000F090FBEF
:1033680003B030BD40F6D80000F028FC40F01E0045
:10337800C1B240F6D80000F0EDFB134B18780228D4
:1033880018D0032806D0012818D1034600220521A9
:10339800032003E00221012300220846FFF724FF4F
:1033A8006FF002008442B8BF0446162CA8BF16244A
:1033B8003821C8E7012300220321EFE70123002277
:1033C80007210420EAE700BF58050020000000009C
:1033D80013B5294A0446516810686B4603C3274B46
:1033E80020785B78834201D0FFF77CFF23781BB1FC
:1033F800012B35D002B010BD6068FCF7CBFF024648
:103408000B4619A1D1E90001FDF768F900221C4B10
:10341800FDF73AF8FDF7D2FA030C8DF80030030AED
:103428008DF80130237B8DF802008DF80330A068F9
:10343800637B8DF80430FCF7ADFF0DA3D3E90023BF
:10344800FDF74CF9FDF7BAFA030C40BA8DF80530D0
:10345800ADF80600082269468B2000F011FBC9E789
:10346800236900930422F6E70000000080847E416F
:10347800000000008084EE3FA849000850050020A5
:10348800000040401FB5284A044651681068127A67
:1034980001AB03C31A70254B20785B78834201D0B7
:1034A800FFF720FF23781BB1012B31D004B010BDEA
:1034B800637AF12B20D14FF6FF70FFF757FD48F2E2
:1034C8000500FFF765FD02236288A188ADF80610A4
:1034D80052BAE188ADF804208DF80B30227AA37A2D
:1034E8008DF80A20ADF808108DF80C30092201A9D2
:1034F8008C2000F0C5FAD9E7F22BE5D141F60F5040
:10350800FFF734FD41F22100FFF742FD0623DBE718
:10351800A3895BBAADF80430E389ADF80630238A95
:10352800ADF808300622E2E7B0490008500500204F
:1035380013B5049C8DF80330230C8DF800008DF82A
:1035480001108DF802208DF804300522230A6946FF
:1035580088208DF805308DF8064000F091FA024B6E
:1035680007221A7002B010BD5005002007B50222CC
:103578008DF804008DF805108F2001A900F080FA5D
:1035880003B05DF804FB07B5012201A9152000F07E
:1035980099FA9DF804004042401003B05DF804FB1E
:1035A80037B504460D46022201A9132000F08AFA15
:1035B8000C4B5B78012B11D140F2047000F0FEFA3D
:1035C800C0F3C710012809D140F2027000F0F6FAE2
:1035D80020709DF805302B7003B030BD9DF8043085
:1035E8002370F6E750050020F7B50D46064600247F
:1035F8000DF10701284617468DF80740FFF7D0FF61
:103608002A78BA4207D89DF80700314600F006FB31
:10361800204603B0F0BD0120FBE7000013B50322EC
:10362800044601A9142000F04DFA1B4A5178217074
:1036380049B1012917D014220021204600F012FCBC
:103648000F2323700DE09DF8043023719DF8053099
:10365800A1605B425B10A3719DF806305B425B1072
:10366800637102B010BD9DF804309DF905105B42EE
:103678005B1023739DF805300029B6BFA3F580734E
:103688009B089B1063739DF806305B425B10A37325
:1036980053682361E5E700BF5005002007B5022203
:1036A80040BAADF8040001A9104600F0E9F903B0EA
:1036B8005DF804FB30B587B003AC05462046FEF73D
:1036C80039FA94E80700144C6B4683E8070084E84D
:1036D80007000020FEF7AAF9052D284638BF052067
:1036E800FCF758FE0D4B0022FCF7CEFE0C4B0022D7
:1036F800FCF7F4FF00F000FEFDF7D0F9FEF7D2FB6F
:103708000120FEF7A3F90120FEF790F9012110200E
:10371800FEF7B2FA07B030BD380700200000E040DD
:1037280000408F4008B50020FEF780F9BDE808404A
:1037380000211020FEF7A0BA014BD3E90001704721
:10374800480700202DE9F04F89B005A8FEF7F2F9E7
:103758009DF81830BDF814109DF817009DF819C091
:103768009DF81AE03B4F00261A4600259DF81B30AD
:1037780003930024CDE90056079B374E0293A1F529
:10378800FA68A246A34625B245451FFA84F917DB15
:1037980011F0030100F1FF3059D0304D304E0024B4
:1037A800E1B2814204F101042BDA2944DDE9007811
:1037B800097B71437F1848F10008CDE90078EFE7ED
:1037C800009B15B119F0030F07D19B190093019BBA
:1037D80043EB0A0301930134D5E7DB190093019BFE
:1037E80043EB0B03F6E7DDE900782C5D74433F19E2
:1037F80048F10008CDE90078CCB2844201F101011A
:10380800F1DB3C24AEFB04454FF46161E1FB0C4560
:10381800039B1349501EE41801FB00F1009B45F17E
:1038280000056418019945F100054FF47A70E21813
:1038380045EB0101A2FB002300FB01330299B1FB18
:10384800F0F0101843F1000109B0BDE8F08F034D06
:10385800034ED1E78033E1010085E201BC4900084D
:103868008051010038B5FFF76DFF034B04460D4644
:10387800C3E9004538BD00BF4807002008B5FFF779
:1038880061FF034AD2E90032C01A61EB020108BDA8
:1038980048070020F0B51D4B03F1180207460D46F6
:1038A80007CA89B002AE86E8070053F8240F184A01
:1038B8009B88ADF80430174B059201248DF81A70D7
:1038C8008DF81B500222002540270090ADF81840C3
:1038D800079530461A6083F80173FEF7C9F805AA00
:1038E80069462846FEF7E4F921462846FEF786F899
:1038F80021463846FEF7C0F921462846FEF760F80B
:103908002046FEF74DF809B0F0BD00BFBC490008DD
:10391800E807040100E100E008B54020FEF790F94F
:1039280078B100214020FEF7A7F900214020FEF7DA
:103938006FF901214020FEF79FF9BDE80840FEF726
:1039480025B808BD72B6704762B67047044B9860D8
:10395800DA6802F01102012AFAD19868C0B27047F9
:103968000090004010B500210E20FDF711FD012147
:103978000E20FDF7E5FF00210E20FDF7E1FF154CB5
:1039880001210E20FDF704FD4FF40073C4F8003147
:103998000723236002232361D4F80431802B0BD042
:1039A8001420FDF797FA0023C4F80C311420FDF712
:1039B80091FA0123C4F80C31064B074802225A60D9
:1039C800064B4FF400121A60BDE8104003220B2189
:1039D800FDF78ABB0090004000FC014000E100E0D8
:1039E8000520704710B5134CD4F8043123F0200398
:1039F800C4F804316420FDF76DFAD4F8043143F0BB
:103A08002003C4F80431D4F8043123F08003C4F847
:103A18000431D4F8003143F02003C4F80031D4F85D
:103A2800043143F00103C4F80431D4F80831DB054C
:103A3800FBD410BD0090004008B50A20FDF74AFAF3
:103A4800024AD2F80831DB05FBD408BD00900040DB
:103A580038B572B6094C0025C4F80C511420FDF78E
:103A680039FAC020FFF772FF2846FFF76FFF0123DE
:103A7800C4F80C31FFF7E0FF62B638BD0090004093
:103A8800F8B50F4F0C4615460646FFF74FFA0023C8
:103A9800C7F80C313046FFF759FF2544AC4208D12E
:103AA8000123842EC7F80C3108D0BDE8F840FFF791
:103AB800C3BF14F8010BFFF749FFEFE7F8BD00BFDC
:103AC8000090004073B5104E019015460C46FFF764
:103AD8002DFA0021C6F80C110198FFF737FF0846A8
:103AE800FFF734FF2544AC4207D10123C6F80C3157
:103AF80002B0BDE87040FFF79FBF0020FFF726FF28
:103B080004F8010BEFE700BF00900040F8B5104E35
:103B18000C4615460746FFF709FA0023C6F80C318C
:103B28000D20FFF713FF380AFFF710FFF8B2FFF771
:103B38000DFF2544AC4206D10123C6F80C31BDE87F
:103B4800F840FFF779BF14F8010BFFF7FFFEF1E724
:103B58000090004007B501228DF807100DF107010C
:103B6800FFF7D4FF03B05DF804FB0000F8B5124E70
:103B7800154607460C46FFF7D9F90021C6F80C117F
:103B88001D20FFF7E3FE380AFFF7E0FEF8B2FFF763
:103B9800DDFE0846FFF7DAFE2544AC4206D10123D4
:103BA800C6F80C31BDE8F840FFF746BF0020FFF724
:103BB800CDFE04F8010BF0E70090004007B50122A4
:103BC8000DF10701FFF7D2FF9DF8070003B05DF87C
:103BD80004FB0000F8B5154607460E46FFF7A6F9A0
:103BE8000D4B0024C3F80C410E20FFF7AFFE3846FA
:103BF800FFF7ACFEADB2A3B29D4207D8064B012237
:103C0800C3F80C21BDE8F840FFF716BF305DFFF799
:103C18009DFE0134EFE700BF00900040F8B515465F
:103C28000E460746FFF782F90F4B0024C3F80C41F4
:103C38001E20FFF78BFE3846FFF788FE2046FFF769
:103C480085FEADB2A3B29D4207D8074B0122C3F847
:103C58000C21BDE8F840FFF7EFBE0020FFF776FE25
:103C680030550134EEE700BF009000400221FFF715
:103C78004FBB022070470000024803220A21FDF7CB
:103C880047B900BF00F00140024804220A21FDF7AD
:103C98003FB900BF00F00140074B0849186843F2DC
:103CA800390201FB002018606FF00043B0FBF3F30A
:103CB800C3EBC373C01A70474C0000206D4EC64159
:103CC800FDF720B910B5FFF737FD0446FFF7CAFD29
:103CD800064B1B68011B201A03B910BD1A688A42DB
:103CE8008CBF121800221A605B69F5E76005002096
:103CF800054B1A680AB1002151721860012342610C
:103D080043720068FFF7D6BC6005002070B5044612
:103D1800FFF718FE6CB11A4D29680A466AB963683C
:103D280023600123238161B9FFF79CFD2046FFF73B
:103D3800DFFFBDE87040FFF707BE9442F9D0526933
:103D4800ECE7FFF79BFD22682B68024422601968A4
:103D58008A42064605D2FFF7B5FF2068801B20601F
:103D6800E4E75969586910B95C616061E1E708687E
:103D7800824202D90B464969F4E75C616161D8E780
:103D88006005002038B5154D0446FFF7DBFD2B68AC
:103D980003B11CB9BDE83840FFF7D6BD0022A342E5
:103DA800227212D1597A5C6969B15A724CB12C608D
:103DB800FFF788FF2B68012218685A72FFF77AFC10
:103DC800E8E7FFF7AFFC2C60E4E71A465B69002BD5
:103DD800E0D09C42F9D163695361DBE760050020BC
:103DE80038B504460D46FFF7CDFFC4E9005538BD88
:103DF80008B5FFF7A7FC034AD2E90232C01842EB24
:103E0800010108BD6005002038B504460D46FFF7DE
:103E1800EFFF001B61EB050138BD000070B50D4ECA
:103E28000D4D761BB61006D0002455F8043B01341E
:103E38009847A642F9D1094E094D761B00F0DAFCE5
:103E4800B61006D0002455F8043B01349847A64222
:103E5800F9D170BD044A0008044A00080C4A000859
:103E6800044A0008F0B4860746D0541E002A3CD005
:103E7800CAB2034601E0013C37D303F8012B9D0782
:103E8800F9D1032C2AD9CDB245EA05250F2C45EAEC
:103E9800054534D9A4F1100222F00F0C03F12007D4
:103EA8001609674403F1100242E9045542E9025534
:103EB8001032BA42F8D1721C14F00C0F03EB021244
:103EC80004F00F0613D0331F23F003030433134405
:103ED80042F8045B9342FBD106F003042CB1CAB24A
:103EE8001C4403F8012B9C42FBD1F0BC70473446BC
:103EF8001346002CF3D1F8E714460346C1E71A46E7
:103F08002646E0E7024B13B1024800F005B87047B7
:103F1800000000002D3F0008002301461A461846FD
:103F280000F01AB838B5084B084D5B1B9C1007D039
:103F3800043B1D44013C55F804399847002CF9D13D
:103F4800BDE8384000F05CBC104A00080C4A000884
:103F5800704700BF704700BF2DE9F047DFF880A029
:103F68000646DAF8000098460F469146FFF7F0FF3C
:103F78001A4B1B68D3F8484124B365681F2D26DC0B
:103F88005EB9AB1C0135DAF80000656044F82370AF
:103F9800FFF7E0FF0020BDE8F08704EB850301216F
:103FA800C3F88890D4F88821A9400A43022EC4F89F
:103FB8008821C3F80881E4D1D4F88C311943C4F8B6
:103FC8008C11DEE703F5A674C3F84841D5E7DAF8A3
:103FD8000000FFF7BFFF4FF0FF30DCE7E8490008BB
:103FE8007804002000000000F8B5C1F30A57A7F2D2
:103FF800FF35132D0B460C460246064632DC002DD3
:104008001EDB354F2F4101EA070C5CEA000C14D087
:104018002FA3D3E90023FCF781F800220023FCF743
:10402800C3FC40B1002C03DD4FF480132B411C442A
:1040380024EA070400263246234610461946F8BDEE
:1040480023A3D3E90023FCF769F800220023FCF737
:10405800ABFC0028EFD0002C34DB26432ED01F4CBD
:104068000026E8E7332D07DDB5F5806FE5D1FCF7CD
:1040780055F802460B46E0E7A7F213474FF0FF3C1E
:104088002CFA07F70742D8D011A3D3E90023FCF78D
:1040980045F800220023FCF787FC0028CBD0002C31
:1040A80009DD142D0CD00122C5F1340302FA03F303
:1040B8009E1928BFA41826EA0706BCE73446BAE7C3
:1040C8000134F8E700264FF00044B4E7AFF300806E
:1040D8009C7500883CE4377EFFFF0F000000F03F2E
:1040E800F8B5C1F30A57A7F2FF35132D0B460C4656
:1040F8000246064620DC002D40DB354F2F4101EA01
:10410800070C5CEA000C14D02FA3D3E90023FCF7BA
:1041180005F800220023FCF747FC40B1002C03DA25
:104128004FF480132B411C4424EA0704002632462E
:10413800234610461946F8BD332D07DDB5F5806FC7
:10414800F7D1FBF7EBFF02460B46F2E7A7F213475E
:104158004FF0FF3C2CFA07F70742EAD01AA3D3E93D
:104168000023FBF7DBFF00220023FCF71DFC0028DF
:10417800DDD0002C1BDB26EA0706D8E712A3D3E91B
:104188000023FBF7CBFF00220023FCF70DFC0028DF
:10419800CDD0002C02DB00263446C8E724F00043CB
:1041A8000C4A1E43002E18BF14460026BFE7142DE4
:1041B80008D00122C5F1340302FA03F39E1928BF7F
:1041C800A418D8E70134D6E79C7500883CE4377E0C
:1041D800FFFF0F000000F0BF2DE9F043C1F30A5CB8
:1041E800ACF2FF36132E83B002460B460D464FEA5B
:1041F800D174074631DC002E4FDB3D49314103EADB
:10420800010010432ED003EA510352EA03074FEA94
:1042180051010CD04FF48023132E25EA010143FAF3
:1042280006F545EA01050CBF4FF000470027314964
:1042380001EBC4042B46D4E900453A4620462946FA
:10424800FBF76CFFCDE90001DDE9000122462B46B2
:10425800FBF762FF03B0BDE8F083332E07DDB6F548
:10426800806F42D01046194603B0BDE8F083ACF227
:10427800134C4FF0FF3121FA0CF10842F2D010EA4A
:1042880051024FEA5103D2D04FF0804220EA03078F
:1042980042FA0CFC47EA0C07C9E721F00041014348
:1042A800E0D0C3F31301014312484F420F4300EB20
:1042B800C401D1E900895D0C3F0B6D0407F40027A8
:1042C80047EA050340464946FBF728FFCDE90001C8
:1042D800DDE9000142464B46FBF71EFF21F0004591
:1042E80045EAC47103B0BDE8F083FBF717FFBBE7ED
:1042F800FFFF0F00F04900082DE9F048C1F30A5705
:10430800A7F2FF34132C0B460D4602460FDC002C97
:104318002ADB1D49214103EA010010432FD04FF445
:10432800002323411D4425EA0105002325E0332C01
:1043380007DDB4F5806F22D1FBF7F0FE02460B468D
:104348001DE0A7F213474FF0FF3121FA07F7384273
:1043580015D00122C4F1330302FA03F3C31828BFAE
:10436800AD1823EA070308E001F00045013404BF53
:1043780045F07F5545F4401500231A462B46104654
:104388001946BDE8F08800BFFFFF0F00F8B50446E6
:104398000D4600F035F8174B93F900300133064607
:1043A8000F461AD022462B4620462946FCF72EFCFB
:1043B80098B90022002320462946FCF7F5FA60B98F
:1043C8002046294600220023FCF7C6FA40B100F037
:1043D8001FFA094F22230360002630463946F8BDEC
:1043E80000F016FA21230360BDE8F840034800F006
:1043F800FBB900BF7C0400200000F0FF004A000861
:104408002DE9F04FB1F5801F85B002460B460E46E8
:1044180059DA21F00044044300F0F8800029C0F282
:104428003281D94B0022FCF72FF80E460B46D749AC
:104438008E4202466FF035004ADCC6F3130505F5D7
:10444800152707F6647707F4801787F07F5181F402
:104458004011341541EA0503A4F2FF340444194617
:104468001046CB4B0022FBF757FEAB1CC3F31303DC
:10447800022B04EB175482468B464FF000022EDCC9
:104488000023FCF769FA002800F0C980002C00F02E
:104498004E812046FBF78EFFA7A3D3E900230646EB
:1044A8000F46FBF7F1FFA6A3D3E9002304460D4608
:1044B80030463946FBF7E8FF02460B4620462946B8
:1044C800FBF72CFE08E0B1498E424FF00000B4DD46
:1044D80010461946FBF722FE05B0BDE8F08F4FF0F5
:1044E8008043FBF71BFE02460B4650465946FCF735
:1044F800F5F8804620468946FBF75CFF42460646AB
:104508000F464B4640464946CDE90089CDE902674A
:10451800FBF7BAFF02460B4680468946FBF7B4FF15
:1045280089A3D3E9002306460F46FBF7ADFF88A30E
:10453800D3E90023FBF7F2FD32463B46FBF7A4FF25
:1045480085A3D3E90023FBF7E9FD32463B46FBF799
:104558009BFF83A3D3E90023FBF7E0FD42464B46CC
:10456800FBF792FF80A3D3E90023804689463046B3
:104578003946FBF789FF7EA3D3E90023FBF7CEFD7D
:1045880032463B46FBF780FF7BA3D3E90023FBF7CA
:10459800C5FD32463B46FBF777FF0B4602464946C8
:1045A8004046FBF7BBFDA5F5C223C5F5D725A3F209
:1045B8007A4351351D43002D06460F4655DD754B90
:1045C800002250465946FBF75FFF52465B46FBF711
:1045D8005BFF80468946002C5CD142464B463046FC
:1045E8003946FBF79BFDDDE90023FBF74DFF02464B
:1045F8000B4640464946FBF78FFD02460B465046A0
:104608005946FBF789FD05B0BDE8F08F002200236D
:1046180061490020FCF762F805B0BDE8F08F58A3A7
:10462800D3E9002350465946FBF72EFF02460B46B6
:1046380000205849FBF770FD524606460F465B4678
:1046480050465946FBF720FF02460B46304639468E
:10465800FBF71AFF06460F46002C50D102460B46C0
:1046680050465946FBF758FD36E7002C40F0968037
:1046780002460B4650465946FBF74EFDDDE900233E
:10468800FBF702FFB9E7FBF747FD00220023FCF721
:1046980025F821E728A3D3E90023DDE90201FBF788
:1046A800F3FE42464B4604460D4630463946FBF774
:1046B80035FDDDE90023FBF7E7FE21A3D3E900235D
:1046C80006460F46DDE90201FBF7DEFE02460B4611
:1046D80030463946FBF722FD02460B46404649461E
:1046E800FBF71AFD52465B46FBF716FD02460B46E2
:1046F80020462946FBF710FD05B0BDE8F08F20469F
:10470800FBF758FE0CA3D3E9002380468946FBF744
:10471800BBFE0BA3D3E9002304460D464046494699
:10472800FBF7B2FE02460B4630463946D8E7002072
:104738000021D1E6AFF300800000E0FE422EE63F04
:10474800763C7935EF39EA3D44523EDF12F1C23FFB
:10475800DE03CB966446C73F599322942449D23F3F
:10476800935555555555E53F9FC678D0099AC33F8F
:10477800AF788E1DC571CC3F04FA97999999D93FA6
:10478800555555555555D53F00005043FFFFEF7F10
:104798000000F03F0000E03F000050C3DDE902895F
:1047A8000DA3D3E9002340464946FBF76DFE324688
:1047B8003B4604460D4650465946FBF7ADFCDDE93D
:1047C8000023FBF761FE06A3D3E9002306460F4644
:1047D80040464946A4E700BF0000E0FE422EE63FFF
:1047E800763C7935EF39EA3D01490020704700BF32
:1047F8000000F87FF8B500BFF8BC08BC9E467047BB
:10480800F8B500BFF8BC08BC9E4670470000000021
:084818005FF800F09505002097
:10482000C01200001F000000A816000017000000C2
:10483000841C00000F000000E42500001E000000A2
:10484000B42D000016000000083900000E00000022
:104850002C4C00001D000000685B000015000000EB
:10486000747200000D000000589800001C00000049
:1048700034B7000014000000E8E400000C00000061
:10488000783101001B000000686E01001300000079
:1048900034CA01000B000000286202001A00000068
:1048A00040DB0200120000003C9303000A000000FD
:1048B000C0C204001900000060B305001100000030
:1048C000382007000900000020A1070000000000B8
:1048D000000000A0703D1F40000000608F422F408C
:1048E0000000000000403F400000000000404F403A
:1048F0000000000000405F400000000000406F40EA
:104900000000000000407F400000000000000000A8
:10491000000000400AD72440000000E07AD4344070
:1049200000000080C2D54440C194C10000000000D6
:10493000040506030A02090108000000D12400084A
:104940000D250008D528000825250008F5280008B1
:1049500043290008B1290008D12B0008C52400080C
:10496000692D00083D25000879250008C9240008A4
:10497000B926000891250008FD2500082925000812
:104980003725000833250008492600084D26000871
:104990009126000875280008512600083D270008C8
:1049A000FD2600088D250008000000000000000022
:1049B0000000000000000000000000001F1D1F1E7E
:1049C0001F1E1F1F1E1F1E1F1F1C1F1E1F1E1F1FFF
:1049D0001E1F1E1FE8070401010000000000000068
:1049E00001000101010F0000500000200000000044
:1049F000000000000000304300000000000030C351
:044A000000000000B2
:084A04000D3F0008FD00000851
:044A0C00D9000008C5
:104A10000102000000000000000000000000000093
:104A20000000000000000000000000000000000086
:104A30000000000000000000000000000000000076
:104A40000000000000000000000000000000000066
:104A5000050000000000803FFF0000000100000092
:104A6000000000003C030020A40300200C040020F0
:104A70000000000000000000000000000000000036
:104A80000000000000000000000000000000000026
:104A90000000000000000000000000000000000016
:104AA0000000000000000000000000000000000006
:104AB00000000000000000000000000000000000F6
:104AC00000000000000000000000000000000000E6
:104AD00000000000000000000000000000000000D6
:104AE00000000000000000000000000000000000C6
:104AF00000000000000000000000000000000000B6
:104B000000000000000000000100000000000000A4
:104B10000E33CDAB34126DE6ECDE05000B00000069
:104B20000000000000000000000000000000000085
:104B30000000000000000000000000000000000075
:104B40000000000000000000000000000000000065
:104B50000000000000000000000000000000000055
:104E8000000000000000000050070020FF000000AC
:0400000508000CA93A
:00000001FF
